:020000040800F2
:1000000080060020810100086F0B00086D0B0008BE
:1000100000000000000000000000000000000000E0
:10002000000000000000000000000000730B00084A
:100030000000000000000000710B0008750B0008B4
:100040009301000893010008930100089301000840
:100050009301000893010008930100089301000830
:100060009301000893010008930100089301000820
:100070009301000893010008930100089301000810
:100080009301000893010008930100089301000800
:1000900093010008930100089301000893010008F0
:1000A00093010008930100089301000893010008E0
:1000B00093010008810B00089301000893010008D8
:1000C00000F002F800F04CF812A030C808382418EC
:1000D0002D18AC4201D100F043F80FCCA246AB463C
:1000E0000CA730CF2D1B083F3F197C427F1E544484
:1000F0002D090426F441641EAC4201D300F030F80F
:100100000126334200D0FB1A3343984754465D46DC
:10011000DFE70000C0360000E0360000103A02D3EE
:1001200078C878C1FAD8520701D330C830C101D598
:1001300004680C6070470000704700000023002432
:1001400000250026103A01D378C1FBD8520700D30E
:1001500030C100D50B6070471FB51FBD10B510BD75
:1001600000F04DF81146FFF7F7FF00F01DFD00F01D
:1001700065F803B4FFF7F2FF03BC00F06BF8000072
:100180000748804707480047FEE7FEE7FEE7FEE72F
:10019000FEE7FEE704480549054A064B70470000A4
:1001A0007D0B0008C10000088000002080060020B0
:1001B000800200208002002001E004C0091F042901
:1001C000FBD28B0701D50280801CC90700D00270CA
:1001D000704700290BD0C30702D00270401C491E93
:1001E000022904D3830702D50280801C891EE3E71D
:1001F0000022EEE70022DFE7704770477047754640
:1002000000F024F8AE46050069465346C008C00019
:10021000854618B020B5FFF7BDFF60BCB646002686
:100220000027C0C5C0C5C0C5C0C5C0C5C0C5C0C504
:10023000C0C5403D490849008D46704710B5044689
:10024000C046C0462046FFF794FF10BD00487047E7
:100250001000002001491820ABBEFEE72600020076
:1002600070470000B0B5044600F0E2F80546601C97
:1002700002D08C480078041900F0DAF8401BA04244
:10028000FAD3B0BDF0B589B001900A68002A00D158
:10029000B5E00D465B48019B834201D0052000E09C
:1002A00004201721C9065918890A9B05591800917D
:1002B000042900D3009000231C461F4607950AE03E
:1002C000114331607F1C2A681046F8401B1DA41C96
:1002D000002800D193E001260396BE403240F1D0C1
:1002E0000292069303200146A140C9436A6815465D
:1002F00005406B1E012B059213D804910199886863
:10030000049B1840079BDB68A34003438B60D00627
:10031000C00FB8404B68B3430E4604990343736063
:1003200006E0032D019E03D10546069B029A20E0BC
:10033000F0680840079B9B68A3400343F360022DCD
:10034000069B029A15D11C20184004910F21814070
:10035000FB089B00F3181D6A8D43079E316981409D
:10036000294319620499069B7068019E0325059034
:100370000540A54030680840284330600598800358
:10038000800F079D9ED052490868039D284308604E
:100390000868284008900C2018400F218140032352
:1003A0003D469D43089B194EAB598B4300998140B4
:1003B0001943A951079D144EB1686868C3020BD553
:1003C0001143B160F16883020BD49143F16071680D
:1003D00083030BD491430AE09143B160F168830237
:1003E000F3D51143F16071688303F3D51143069B84
:1003F00071603168C00300D562E7914361E709B0DD
:10040000F0BDC04600100048000401400800014053
:1004100042690B4693430A401104C9188161704731
:10042000002A02D01822815070472822815070473C
:10043000054800687047C0461A48007802490A68B3
:10044000101808607047C0467800002080B58548C5
:10045000016810220A430260032000F005F800F052
:1004600023F8002080BDC04670B504467D20C00042
:100470000C4E317803F09AF801468448006803F086
:1004800095F800F059FB0125032C08D8002806D167
:100490000025E84321462A4600F01CF874602846EF
:1004A00070BDC0460000002082B0094801680122EA
:1004B00011430160016811400191019911074268DF
:1004C0000A434260406808400090009802B07047BC
:1004D00018100240002805D40322034693430A4A19
:1004E0009A1803E00C220240064BD2188007C00E77
:1004F0008901C9B28140FF238340106898430843B3
:100500001060704714ED00E000E400E0F0B581B049
:10051000002846D00446534A1368012003408B420A
:1005200008D213680126B3430B43136012683240AC
:100530008A4237D1009121688A074B4B10D54A0770
:1005400006D5072212021B681343474A1360464B25
:100550001A68F0239A43A3681343434A1360424B3B
:10056000C90722D13F49086801263040009A9042CD
:1005700005D90868B04308600868C00712D1207820
:10058000400706D50720000219688143E068084348
:1005900018601A681007810F3548022912D20446E4
:1005A00050E00126304601B0F0BD616803290DD04E
:1005B0001A1F02290FD0012912D112689203064690
:1005C000F0D511E0032926D12A4C3BE01A6B9203A7
:1005D0000646E7D508E0126892010646E2D503E038
:1005E000126892070646DDD518680326B043084313
:1005F0001860FFF71DFF07461C4D1B4B18680C21A8
:100600000140606880008142ACD0FFF711FFC01B41
:10061000A842F2D9C6E70321CB031349896A0F2404
:100620000C401549095D94021A40240F134D2C5DAE
:100630009A4202D033049A4200E00E4802F0B6FF1C
:100640004443094B18680006000F0D49085CC4407C
:100650000E4804600320FFF707FF0026304601B074
:10066000F0BDC04600200240041002408813000084
:1006700000127A00006CDC02C2370008B2370008B2
:10068000A2370008014800687047C04608000020F3
:10069000F0B587B004460120002C00D145E204905B
:1006A0002078C007F94E05940CD071680C200140E9
:1006B000042900D090E03068800303D560680028EA
:1006C00000D120E12078800721D570680007800FD5
:1006D0000ED070680C210140082900D09DE0032055
:1006E000C003716801400120C003814200D094E042
:1006F00030688007059C03D5E068012800D002E13E
:100700003068F82188432169C90001433160059CA4
:100710002078000724D42078400737D42078C006FA
:1007200000D4D3E005984069411D00D1C2E0012802
:1007300000D030E1706B042101437163706B0121C3
:1007400001437163FFF774FE0546706B800700D5A7
:10075000B4E0FFF76DFE411B03200229F5D9E4E167
:10076000706AE169002900D181E0012108437062CB
:10077000FFF75EFE0546706A8007CCD4FFF758FE8F
:10078000401B0228F7D9032007B0F0BD01200390D9
:100790000107F0690840029006D1F0690843F06152
:1007A000F0690840069006980191E14F3868C0054D
:1007B0004AD403980402386820433860FFF738FEB3
:1007C0000546386820423FD1FFF732FE401B6428BF
:1007D000F7D9032007B0F0BD71680140082908D19E
:1007E0000320C0037168014001200004814200D150
:1007F00061E7616801204704002900D117E105295C
:1008000000D12BE1012900D12CE1010432688A4397
:10081000326081043068884327E13068059CE168D4
:10082000002936D0012108433060FFF701FE05465C
:100830003068800700D563E7FFF7FAFD401B022808
:10084000F6D9032007B0F0BD05988068002800D1D4
:10085000B6E0052800D1C9E0012800D1CAE0306A1D
:10086000039988433062306A04218843C5E001213E
:1008700088437062FFF7DCFD0546706A800700D48C
:1008800049E7FFF7D5FD401B0228F6D9032007B042
:10089000F0BD012188433060FFF7CAFD054630688E
:1008A000800700D433E7FFF7C3FD411B0320022973
:1008B000F5D93AE1706B042188437063706BF821BD
:1008C000884305998969C9000143716305980078D7
:1008D00080060BD571680C2001400C2939D1706B52
:1008E000800303D50598006A01280CD10598446A55
:1008F000002C00D1E1E070680C210140082905D1ED
:10090000012C00D0C4E0049807B0F0BD012002061D
:1009100031680492914331604706FFF789FD05462F
:10092000022C0BD1049C3068384200D1DEE0FFF786
:100930007FFD411B03200229F5D9F6E030683842DB
:1009400000D1BAE0FFF774FD411B03200229F5D95D
:10095000EBE071680140082905D10320C0037168EC
:1009600001408142BBD0706B0599096A002900D112
:10097000A9E001210A04104370634C04FFF758FDFD
:100980000546706B2042B1D1FFF752FD411B032099
:100990000229F6D9C9E0706B042101437163706BC1
:1009A000012188437063FFF743FD0546706B8007A4
:1009B0008CD5FFF73DFD411B03200229F6D9B4E099
:1009C000306A039988433062306A04218843306278
:1009D000584CFFF72DFD0546306A80071DD5FFF7FF
:1009E00027FD411B0320A142F6D99EE0306A042175
:1009F00001433162306A0399084330624D4CFFF77E
:100A000017FD0546306A800707D4FFF711FD401B2C
:100A1000A042F7D9032007B0F0BD02980028059C3A
:100A200000D07BE6F06901998843F06176E6010425
:100A300032688A4332608004316881433160FFF755
:100A4000F7FC0546059C3068384200D13AE6FFF7CE
:100A5000EFFC411B03206429F5D966E0810432686C
:100A60000A4332600104306808433060FFF7E0FC5D
:100A700005463068384200D024E6FFF7D9FC401B19
:100A80006428F6D9032007B0F0BDC046001002402C
:100A90000320C20370680240F16A059CA36A9A426F
:100AA000049D0DD10F221140236B994208D191046E
:100AB0000840E16A8842284637D1002007B0F0BDDF
:100AC000284607B0F0BD01210A04904370634C042E
:100AD000FFF7AEFC0546706B204200D106E7FFF73A
:100AE000A7FC411B03200229F5D91EE0F06A0F2163
:100AF0008843059A116B0143F1627B20C003716842
:100B00008143D06A0843916A014371603068204391
:100B10003060FFF78DFC044630683842CDD1FFF7D6
:100B200087FC011B03200229F6D907B0F0BDC0469F
:100B30000070004088130000401E010E01D001200B
:100B400070470749074A5060074803680B40032174
:100B500089075918016000209060072111607047D3
:100B6000FFFFFF0010E000E020ED00E0FEE7FEE701
:100B70007047704780B5FFF75FFC80BD704700008D
:100B8000A3484168002906D0A1494A68012A08D132
:100B90004A1C022101E001210246024B1B8813700E
:100BA000416070472448004000B597B0FFF74EFC05
:100BB0000AAD281D3021FFF71DFB002713971020D9
:100BC0000E9001240D9402200A902846FFF760FD44
:100BD000002803D0EFF3108072B6FEE7099708975C
:100BE00007970720069006A83946FFF78FFC0028D4
:100BF00003D0EFF3108072B6FEE7E10404917A4E61
:100C0000306808433060306808400A900A9877A03E
:100C10000AA90A46059788C888C2A8C8A8C2784DFC
:100C20002846FFF72FFBA004B1680143B1606202C0
:100C30002968019211432960220229680092914398
:100C40002960E1022A680A432A60A1022A688A43CD
:100C50002A60296A049A91432962296A8143296298
:100C60006004296A814329622004296A01432962B8
:100C7000E005296A81432962A005296A8143296226
:100C80006005296A814329622005296A0143296296
:100C90005C4E35461C3D28680821014329602868C0
:100CA000042101432960FFF7EDFCE121490202F034
:100CB0009FFC314610390860286820273843286097
:100CC000600751490860FF20000250490A688243CA
:100CD000A003101808602868204328604C4D039733
:100CE00000E0B381C820FFF7BDFA0598686030685E
:100CF000000608D43068000605D43068000602D427
:100D000030680006F3D54320B0813068000608D46F
:100D10003068000605D43068000602D4306800064A
:100D2000F3D54D20B0813068000608D43068000645
:100D300005D43068000602D430680006F3D544209C
:100D4000B0813068000608D43068000605D43068E9
:100D5000000602D430680006F3D53F20B081306829
:100D6000000608D43068000605D43068000602D4B6
:100D700030680006F3D50A24B4813068000608D430
:100D80003068000605D43068000602D430680006DA
:100D9000F3D50D23B3816868022808D0686802285B
:100DA00005D06868022802D068680228F3D1287844
:100DB0006238102800D935E14000C0467844808868
:100DC0004000874427002F012F012F012F01BB0274
:100DD0002F012F012F012F012F012F012F01D503EB
:100DE0002F012F010105C04614100240C00300006E
:100DF00001000000000000000000000000000000F2
:100E0000000800481C48004000E100E01CE400E04D
:100E1000700000206878302801D000F0D2FD0494E2
:100E20001C46802100227E48FFF7FAFA306800064F
:100E300008D43068000605D43068000602D4306853
:100E40000006F3D55420B0813068000608D430681D
:100E5000000605D43068000602D430680006F3D5D9
:100E60007520B0813168090608D43168090605D4B7
:100E70003168090602D431680906F3D57221B181BF
:100E80003168090608D43168090605D431680906B5
:100E900002D431680906F3D56E21B18131680906A3
:100EA00008D43168090605D43168090602D43168CE
:100EB0000906F3D56521B1813268120608D432687B
:100EC000120605D43268120602D432681206F3D52F
:100ED0006422B2813268120608D43268120605D440
:100EE0003268120602D432681206F3D5B78132682E
:100EF000120608D43268120605D43268120602D4EB
:100F000032681206F3D56F22B2813268120608D415
:100F10003268120605D43268120602D4326812060C
:100F2000F3D56622B28133681B0608D433681B06EA
:100F300005D433681B0602D433681B06F3D5B2818F
:100F40003268120608D43268120605D432681206D6
:100F500002D432681206F3D5B781234632681206EE
:100F600008D43268120605D43268120602D43268F8
:100F70001206F3D56222B281049C3268120608D4AC
:100F80003268120605D43268120602D4326812069C
:100F9000F3D56C22B2813268120608D43268120688
:100FA00005D43268120602D432681206F3D5B08135
:100FB0003068000608D43068000605D430680006A2
:100FC00002D430680006F3D5B1813068000608D439
:100FD0003068000605D43068000602D43068000688
:100FE000F3D52E20B0813068000608D430680006A2
:100FF00005D43068000602D430680006F3D5B48109
:101000003068000600D56CE63068000600D568E65A
:101010003068000600D564E630680006F0D560E66A
:10102000000800483068000608D43068000605D47F
:101030003068000602D430680006F3D55520B08130
:101040003068000608D43068000605D43068000611
:1010500002D430680006F3D56E20B08131680906ED
:1010600008D43168090605D43168090602D431680C
:101070000906F3D56B21B1813168090608D43168BE
:10108000090605D43168090602D431680906F3D58A
:10109000B0813168090608D43168090605D4316881
:1010A000090602D431680906F3D56F21B18132688F
:1010B000120608D43268120605D43268120602D429
:1010C00032681206F3D57722B2813268120608D44C
:1010D0003268120605D43268120602D4326812064B
:1010E000F3D5B0813268120608D43268120605D4EE
:1010F0003268120602D432681206F3D5B78132681C
:10110000120608D43268120605D43268120602D4D8
:1011100032681206F3D56322B2813268120608D40F
:101120003268120605D43268120602D432681206FA
:10113000F3D5B1813168090608D43168090605D4B0
:101140003168090602D431680906F3D56D21B181F1
:101150003268120608D43268120605D432681206C4
:1011600002D432681206F3D5B1813168090608D479
:101170003168090605D43168090602D431680906C8
:10118000F3D56121B1813268120608D432681206A3
:1011900005D43268120602D432681206F3D5B08143
:1011A0003268120608D43268120605D43268120674
:1011B00002D432681206F3D56422B2813268120674
:1011C00008D43268120605D43268120602D4326896
:1011D0001206F3D52122B2813268120608D4326891
:1011E000120605D43268120602D432681206F3D50C
:1011F000B7813268120608D43268120605D4326804
:10120000120602D432681206F3D55422B281326833
:10121000120608D43268120605D43268120602D4C7
:1012200032681206F3D57222B2813268120608D4EF
:101230003268120605D43268120602D432681206E9
:10124000F3D57922B2813268120608D432681206C8
:1012500005D43268120602D432681206F3D5B7817B
:101260003268120608D43268120605D432681206B3
:1012700002D432681206F3D5B1813268120608D45E
:101280003268120605D43268120602D43268120699
:10129000F3D56722B2813268120608D4326812068A
:1012A00005D43268120602D432681206F3D5B18131
:1012B0003168090608D43168090605D43168090681
:1012C00002D431680906F3D56921B1813168090674
:1012D00008D43168090605D43168090602D431689A
:1012E0000906F3D5B0813068000608D430680006DE
:1012F00005D43068000602D430680006F3D52E20ED
:10130000B0813068000608D43068000605D4306823
:10131000000602D430680006F3D5B48130680006B8
:1013200000D5DEE43068000600D5DAE43068000657
:1013300000D5D6E430680006F0D5D2E468783028CD
:1013400001D000F03DFC04940293002287480199EB
:10135000FFF766F83068000608D43068000605D448
:101360003068000602D430680006F3D55420B081FE
:101370003068000608D43068000605D430680006DE
:1013800002D430680006F3D57520B08130680006BD
:1013900008D43068000605D43068000602D43068EE
:1013A0000006F3D57221B1813068000608D4306898
:1013B000000605D43068000602D430680006F3D574
:1013C0006E20B0813268120608D43268120605D445
:1013D0003268120602D432681206F3D56522B28151
:1013E00033681B0608D433681B0605D433681B0614
:1013F00002D433681B06F3D56423B38133681B061C
:1014000008D433681B0605D433681B0602D433683E
:101410001B06F3D5B78133681B0608D433681B0657
:1014200005D433681B0602D433681B06F3D56F233B
:10143000B38133681B0608D433681B0605D43368B0
:101440001B0602D433681B06F3D56623B3813468C8
:10145000240608D43468240605D43468240602D44B
:1014600034682406F3D5B38133681B0608D4336887
:101470001B0605D433681B0602D433681B06F3D55C
:10148000039B1F46B38133681B0608D433681B06D1
:1014900005D433681B0602D433681B06F3D56723D3
:1014A000B38133681B0608D433681B0605D4336840
:1014B0001B0602D433681B06F3D5B18131680906D7
:1014C00008D43168090605D43168090602D43168A8
:1014D0000906F3D5B281029B3168090608D4316848
:1014E000090605D43168090602D431680906F3D526
:1014F000B281049A3168090608D43168090605D416
:101500003168090602D431680906F3D5B081306824
:10151000000608D43068000605D43068000602D4FE
:1015200030680006F3D52E20B0813068000608D45C
:101530003068000605D43068000602D43068000622
:10154000F3D5B2813068000601D5FFF7CAFB3068D9
:10155000000601D5FFF7C5FB3068000601D5FFF78F
:10156000C0FB30680006EDD5FFF7BBFB0008004864
:101570006878302801D000F02DFC029300229148B9
:101580000099FEF74DFF3068000608D43068000669
:1015900005D43068000602D430680006F3D5542024
:1015A000B0813068000608D43068000605D4306881
:1015B000000602D430680006F3D57520B08130688B
:1015C000000608D43068000605D43068000602D44E
:1015D00030680006F3D57222B2813068000608D464
:1015E0003068000605D43068000602D43068000672
:1015F000F3D56E21B1813068000608D4306800064A
:1016000005D43068000602D430680006F3D56520A2
:101610000490B08133681B0608D433681B0605D4D8
:1016200033681B0602D433681B06F3D56423B381E9
:1016300033681B0608D433681B0605D433681B06C1
:1016400002D433681B06F3D5B78133681B0608D470
:1016500033681B0605D433681B0602D433681B06A7
:10166000F3D520466F23B3813468240608D4346848
:10167000240605D43468240602D434682406F3D53D
:101680006624B48137683F0608D437683F0605D41E
:1016900037683F0602D437683F06F3D5B481346813
:1016A000240608D43468240605D43468240602D4F9
:1016B00034682406F3D5039CB481074634682406B5
:1016C00008D43468240605D43468240602D4346867
:1016D0002406F3D5B38133681B0608D433681B0690
:1016E00005D433681B0602D433681B06F3D5B281D8
:1016F0003268120608D43268120605D4326812061F
:1017000002D432681206F3D56122B281029B32689C
:10171000120608D43268120605D43268120602D4C2
:1017200032681206F3D5B181039A3168090608D4EC
:101730003168090605D43168090602D43168090602
:10174000F3D56721B1813168090608D431680906EB
:1017500005D43168090602D431680906F3D5049826
:10176000B0813068000608D43068000605D43068BF
:10177000000602D430680006F3D52E20B081306810
:10178000000608D43068000605D43068000602D48C
:1017900030680006F3D5B78117463068000601D5DA
:1017A000FFF79FFA3068000601D5FFF79AFA306814
:1017B000000601D5FFF795FA30680006EDD5FFF772
:1017C00090FAC046000800486878302801D000F040
:1017D0001BFC0494029340210022F848FEF720FEEF
:1017E0003068000608D43068000605D4306800066A
:1017F00002D430680006F3D55420B081306800066A
:1018000008D43068000605D43068000602D4306879
:101810000006F3D57520B0813068000608D4306822
:10182000000605D43068000602D430680006F3D5FF
:101830007220B0813168090608D43168090605D4E0
:101840003168090602D431680906F3D56E21B181E9
:101850003168090608D43168090605D431680906DB
:1018600002D431680906F3D56521B18132681206C8
:1018700008D43268120605D43268120602D43268DF
:101880001206F3D56422B28133681B0608D433688C
:101890001B0605D433681B0602D433681B06F3D538
:1018A000B78133681B0608D433681B0605D4336838
:1018B0001B0602D433681B06F3D56F23B38133684C
:1018C0001B0608D433681B0605D433681B0602D4F4
:1018D00033681B06F3D56623B3813468240608D425
:1018E0003468240605D43468240602D434682406F7
:1018F000F3D5B38133681B0608D433681B0605D4BF
:1019000033681B0602D433681B06F3D5039B1F46BE
:10191000B38133681B0608D433681B0605D43368CB
:101920001B0602D433681B06F3D5B081306800066D
:1019300008D43068000605D43068000602D4306848
:101940000006F3D5B181029B3068000608D43068E8
:10195000000605D43068000602D430680006F3D5CE
:10196000B28104993068000608D43068000605D4B6
:101970003068000602D430680006F3D52E20B0810E
:101980003068000608D43068000605D430680006C8
:1019900002D430680006F3D5B1813068000601D565
:1019A000FFF79FF93068000601D5FFF79AF9306814
:1019B000000601D5FFF795F930680006EDD5FFF771
:1019C00090F96878312801D000F010FC04941C468E
:1019D000802101227948FEF723FD3068000608D4F3
:1019E0003068000605D43068000602D4306800066E
:1019F000F3D55420B0813068000608D43068000662
:101A000005D43068000602D430680006F3D575208E
:101A1000B0813168090608D43168090605D43168F7
:101A2000090602D431680906F3D57221B181316803
:101A3000090608D43168090605D43168090602D4BC
:101A400031680906F3D56E22B2813168090608D4DF
:101A50003168090605D43168090602D431680906DF
:101A6000F3D56521B18133681B0608D433681B06A2
:101A700005D433681B0602D433681B06F3D56423F0
:101A8000B38133681B0608D433681B0605D433685A
:101A90001B0602D433681B06F3D5B78133681B06D7
:101AA00008D433681B0605D433681B0602D4336898
:101AB0001B06F3D56F23B38133681B0608D4336844
:101AC0001B0605D433681B0602D433681B06F3D506
:101AD000B2813268120608D43268120605D4326820
:101AE000120602D432681206F3D5B7812346326853
:101AF000120608D43268120605D43268120602D4DF
:101B000032681206F3D56222B281049C3268120652
:101B100008D43268120605D43268120602D432683C
:101B20001206F3D56C22B2813268120608D43268EC
:101B3000120605D43268120602D432681206F3D5B2
:101B4000B0813068000608D43068000605D43068DB
:101B5000000602D430680006F3D5B1813068000673
:101B600008D43068000605D43068000602D4306816
:101B70000006F3D52E20B0813068000608D4306806
:101B8000000605D43068000602D430680006F3D59C
:101B9000B4813068000601D5FFF7A3F8306800066D
:101BA00001D5FFF79EF83068000601D5FFF799F8D8
:101BB00030680006EDD5FFF794F8C04600080048ED
:101BC0006878312801D000F083FD04941C4601227E
:101BD0007F480199FEF724FC3068000608D430687D
:101BE000000605D43068000602D430680006F3D53C
:101BF0005420B0813068000608D43068000605D44F
:101C00003068000602D430680006F3D57520B08134
:101C10003068000608D43068000605D43068000635
:101C200002D430680006F3D57221B1813068000615
:101C300008D43068000605D43068000602D4306845
:101C40000006F3D56E20B0813268120608D43268DF
:101C5000120605D43268120602D432681206F3D591
:101C60006522B28133681B0608D433681B0605D48D
:101C700033681B0602D433681B06F3D56423B38193
:101C800033681B0608D433681B0605D433681B066B
:101C900002D433681B06F3D5B78133681B0608D41A
:101CA00033681B0605D433681B0602D433681B0651
:101CB000F3D56F23B38133681B0608D433681B0642
:101CC00005D433681B0602D433681B06F3D5B081F4
:101CD00033681B0608D433681B0605D433681B061B
:101CE00002D433681B06F3D5B78133681B0608D4CA
:101CF00033681B0605D433681B0602D433681B0601
:101D0000F3D56723B38133681B0608D433681B06F9
:101D100005D433681B0602D433681B06F3D5B181A2
:101D20003168090608D43168090605D43168090606
:101D300002D431680906F3D5B28123463168090619
:101D400008D43168090605D43168090602D431681F
:101D50000906F3D5B281049A3168090608D43168BE
:101D6000090605D43168090602D431680906F3D59D
:101D7000B0813068000608D43068000605D43068A9
:101D8000000602D430680006F3D52E20B0813068FA
:101D9000000608D43068000605D43068000602D476
:101DA00030680006F3D5B2813068000601D5FEF731
:101DB00098FF3068000601D5FEF793FF30680006F3
:101DC00001D5FEF78EFF30680006EDD5FEF789FFDE
:101DD000000800486878312801D000F0F7FE04942C
:101DE0000293012287480099FEF71AFB306800062B
:101DF00008D43068000605D43068000602D4306884
:101E00000006F3D55420B0813068000608D430684D
:101E1000000605D43068000602D430680006F3D509
:101E20007520B0813068000608D43068000605D4FB
:101E30003068000602D430680006F3D57222B28101
:101E40003068000608D43068000605D43068000603
:101E500002D430680006F3D56E21B18130680006E7
:101E600008D43068000605D43068000602D4306813
:101E70000006F3D56520B08133681B0608D43368AB
:101E80001B0605D433681B0602D433681B06F3D542
:101E90006423B38133681B0608D433681B0605D45A
:101EA00033681B0602D433681B06F3D5B781336849
:101EB0001B0608D433681B0605D433681B0602D4FE
:101EC00033681B06F3D56F23B3813468240608D426
:101ED0003468240605D43468240602D43468240601
:101EE000F3D5B1813468240608D43468240605D4B7
:101EF0003468240602D434682406F3D5039CB481E4
:101F00003468240608D43468240605D434682406CA
:101F100002D434682406F3D5B38133681B0608D491
:101F200033681B0605D433681B0602D433681B06CE
:101F3000F3D5B2813268120608D43268120605D48D
:101F40003268120602D432681206F3D56122B281D9
:101F5000029B3268120608D43268120605D4326831
:101F6000120602D432681206F3D5B181039F049A97
:101F70003168090608D43168090605D431680906B4
:101F800002D431680906F3D56721B18131680906A9
:101F900008D43168090605D43168090602D43168CD
:101FA0000906F3D5B0813068000608D43068000611
:101FB00005D43068000602D430680006F3D52E2020
:101FC000B0813068000608D43068000605D4306857
:101FD000000602D430680006F3D5B28130680006EE
:101FE00001D5FEF77EFE3068000601D5FEF779FECA
:101FF0003068000601D5FEF774FE30680006EDD5A6
:10200000FEF76FFE000800486878312801D001F023
:1020100069F804941F46402101227348FEF700FA34
:102020003068000608D43068000605D43068000621
:1020300002D430680006F3D55420B0813068000621
:1020400008D43068000605D43068000602D4306831
:102050000006F3D57520B0813068000608D43068DA
:10206000000605D43068000602D430680006F3D5B7
:102070007220B0813168090608D43168090605D498
:102080003168090602D431680906F3D56E23B3819D
:102090003168090608D43168090605D43168090693
:1020A00002D431680906F3D56521B1813268120680
:1020B00008D43268120605D43268120602D4326897
:1020C0001206F3D56422B2813468240608D4346839
:1020D000240605D43468240602D434682406F3D5D3
:1020E000039CB4813468240608D43468240605D4DB
:1020F0003468240602D434682406F3D56F24B481EE
:102100003468240608D43468240605D434682406C8
:1021100002D434682406F3D5B381039C33681B06CC
:1021200008D433681B0605D433681B0602D4336811
:102130001B06F3D5B48133681B0608D433681B062D
:1021400005D433681B0602D433681B06F3D5B0816F
:102150003068000608D43068000605D430680006F0
:1021600002D430680006F3D5B1813B4630680006E2
:1021700008D43068000605D43068000602D4306800
:102180000006F3D5B281049927463068000608D4CA
:102190003068000605D43068000602D430680006B6
:1021A000F3D52E20B0813068000608D430680006D0
:1021B00005D43068000602D430680006F3D5B1813A
:1021C0003068000601D5FEF78CFD3068000601D5A9
:1021D000FEF787FD3068000601D5FEF782FD306806
:1021E0000006EDD5FEF77DFD00080048687832282E
:1021F00000D0DDE01F4680216C48FEF709F9306809
:10220000000608D43068000605D43068000602D401
:1022100030680006F3D55420B0813068000608D439
:102220003068000605D43068000602D43068000625
:10223000F3D56F20B0813B463068000608D4306883
:10224000000605D43068000602D430680006F3D5D5
:102250006720B0813168090608D43168090605D4C1
:102260003168090602D431680906F3D5B0813068B7
:10227000000608D43068000605D43068000602D491
:1022800030680006F3D56C21B1813068000608D4AF
:102290003068000605D43068000602D430680006B5
:1022A000F3D56520B0813268120608D43268120670
:1022B00005D43268120602D432681206F3D56422BD
:1022C000B2813268120608D43268120605D4326828
:1022D000120602D432681206F3D5039AB28132682C
:1022E000120608D43268120605D43268120602D4E7
:1022F00032681206F3D56222B2813268120608D41F
:102300003268120605D43268120602D43268120608
:10231000F3D5B1813168090608D43168090605D4BE
:102320003168090602D431680906F3D57521B181F7
:102330003168090608D43168090605D431680906F0
:1023400002D431680906F3D5B0813068000608D49C
:102350003068000605D43068000602D430680006F4
:10236000F3D52E20B0813068000608D4306800060E
:1023700005D43068000602D430680006F3D5B48175
:10238000039F3068000601D5FEF7ABFC30680006FD
:1023900001D5FEF7A6FC3068000601D5FEF7A1FCCA
:1023A00030680006EDD5FEF79CFCC04600080048EA
:1023B0003068000608D43068000605D4306800068E
:1023C00002D430680006F3D55520B081306800068D
:1023D00008D43068000605D43068000602D430689E
:1023E0000006F3D56E20B0813168090608D4316843
:1023F000090605D43168090602D431680906F3D507
:102400006B21B1813168090608D43168090605D409
:102410003168090602D431680906F3D5B081316804
:10242000090608D43168090605D43168090602D4C2
:1024300031680906F3D56F21B1813268120608D4DC
:102440003268120605D43268120602D432681206C7
:10245000F3D57722B2813268120608D432681206A8
:1024600005D43268120602D432681206F3D5B08160
:102470003268120608D43268120605D43268120691
:1024800002D432681206F3D5B7813268120608D436
:102490003268120605D43268120602D43268120677
:1024A000F3D56322B2813268120608D4326812066C
:1024B00005D43268120602D432681206F3D5B1810F
:1024C0003168090608D43168090605D4316809065F
:1024D00002D431680906F3D56D21B1813268120644
:1024E00008D43268120605D43268120602D4326863
:1024F0001206F3D5B1813168090608D4316809069E
:1025000005D43168090602D431680906F3D5612182
:10251000B1813268120608D43268120605D43268D6
:10252000120602D432681206F3D5B0813268120660
:1025300008D43268120605D43268120602D4326812
:102540001206F3D56422B2813268120608D43268CA
:10255000120605D43268120602D432681206F3D588
:102560002122B2813268120608D43268120605D4DC
:102570003268120602D432681206F3D5B781326887
:10258000120608D43268120605D43268120602D444
:1025900032681206F3D55422B2813268120608D48A
:1025A0003268120605D43268120602D43268120666
:1025B000F3D57222B2813268120608D4326812064C
:1025C00005D43268120602D432681206F3D5792295
:1025D000B2813268120608D43268120605D4326815
:1025E000120602D432681206F3D5B7813268120699
:1025F00008D43268120605D43268120602D4326852
:102600001206F3D5B1813268120608D43268120678
:1026100005D43268120602D432681206F3D5672256
:10262000B2813268120608D43268120605D43268C4
:10263000120602D432681206F3D5B1813168090658
:1026400008D43168090605D43168090602D4316816
:102650000906F3D56921B1813168090608D43168CA
:10266000090605D43168090602D431680906F3D594
:10267000B0813068000608D43068000605D43068A0
:10268000000602D430680006F3D52E20B0813068F1
:10269000000608D43068000605D43068000602D46D
:1026A00030680006F3D5B4813068000601D5FEF726
:1026B00018FB3068000601D5FEF713FB30680006F2
:1026C00001D5FEF70EFB30680006EDD5FEF709FBDD
:1026D0006878322800D0E9E01F4673480199FDF779
:1026E00097FE3068000608D43068000605D43068CC
:1026F000000602D430680006F3D55420B08130685B
:10270000000608D43068000605D43068000602D4FC
:1027100030680006F3D56F20B0813B463068000674
:1027200008D43068000605D43068000602D430684A
:102730000006F3D56720B0813168090608D43168F6
:10274000090605D43168090602D431680906F3D5B3
:10275000B0813168090608D43168090605D43168AA
:10276000090602D431680906F3D56C21B1813168BC
:10277000090608D43168090605D43168090602D46F
:1027800031680906F3D56521B1813268120608D493
:102790003268120605D43268120602D43268120674
:1027A000F3D56422B2813268120608D43268120668
:1027B00005D43268120602D432681206F3D5039AA1
:1027C000B2813268120608D43268120605D4326823
:1027D000120602D432681206F3D5B08130680006C2
:1027E00008D43068000605D43068000602D430688A
:1027F0000006F3D57220B0813068000608D4306836
:10280000000605D43068000602D430680006F3D50F
:10281000B1813068000608D43068000605D43068FD
:10282000000602D430680006F3D5B1813068000696
:1028300008D43068000605D43068000602D4306839
:102840000006F3D56E20B0813068000608D43068E9
:10285000000605D43068000602D430680006F3D5BF
:102860002E20B0813068000608D43068000605D4F8
:102870003068000602D430680006F3D5B481039FA7
:102880003068000601D5FEF72CFA3068000601D545
:10289000FEF727FA3068000601D5FEF722FA306805
:1028A0000006EDD5FEF71DFA000800483068000666
:1028B00008D43068000605D43068000602D43068B9
:1028C0000006F3D55520B0813068000608D4306882
:1028D000000605D43068000602D430680006F3D53F
:1028E0006E20B0813168090608D43168090605D424
:1028F0003168090602D431680906F3D56B21B1812C
:102900003168090608D43168090605D4316809061A
:1029100002D431680906F3D5B0813168090608D4BC
:102920003168090605D43168090602D43168090600
:10293000F3D56F21B1813268120608D432681206CD
:1029400005D43268120602D432681206F3D5772213
:10295000B2813268120608D43268120605D4326891
:10296000120602D432681206F3D5B081326812061C
:1029700008D43268120605D43268120602D43268CE
:102980001206F3D5B7813268120608D432681206EF
:1029900005D43268120602D432681206F3D56322D7
:1029A000B2813268120608D43268120605D4326841
:1029B000120602D432681206F3D5B18131680906D5
:1029C00008D43168090605D43168090602D4316893
:1029D0000906F3D56D21B1813268120608D4326838
:1029E000120605D43268120602D432681206F3D5F4
:1029F000B1813168090608D43168090605D4316807
:102A0000090602D431680906F3D56121B181326823
:102A1000120608D43268120605D43268120602D4AF
:102A200032681206F3D5B0813268120608D43268D3
:102A3000120605D43268120602D432681206F3D5A3
:102A40006422B2813268120608D43268120605D4B4
:102A50003268120602D432681206F3D52122B281FE
:102A60003268120608D43268120605D4326812069B
:102A700002D432681206F3D5B7813268120608D440
:102A80003268120605D43268120602D43268120681
:102A9000F3D55422B2813268120608D43268120685
:102AA00005D43268120602D432681206F3D57222B7
:102AB000B2813268120608D43268120605D4326830
:102AC000120602D432681206F3D57922B281326836
:102AD000120608D43268120605D43268120602D4EF
:102AE00032681206F3D5B7813268120608D432680C
:102AF000120605D43268120602D432681206F3D5E3
:102B0000B1813268120608D43268120605D43268E0
:102B1000120602D432681206F3D56722B2813268F7
:102B2000120608D43268120605D43268120602D49E
:102B300032681206F3D5B1813168090608D43168CC
:102B4000090605D43168090602D431680906F3D5AF
:102B50006921B1813168090608D43168090605D4B4
:102B60003168090602D431680906F3D5B0813068AE
:102B7000000608D43068000605D43068000602D488
:102B800030680006F3D52E20B0813068000608D4E6
:102B90003068000605D43068000602D430680006AC
:102BA000F3D5B4813068000601D5FEF79AF8306895
:102BB000000601D5FEF795F83068000601D5FEF74E
:102BC00090F830680006EDD5FEF78BF8687832286B
:102BD00000D0F7E01F467A480099FDF719FC3068ED
:102BE000000608D43068000605D43068000602D418
:102BF00030680006F3D55420B0813068000608D450
:102C00003068000605D43068000602D4306800063B
:102C1000F3D56F22B2813068000608D43068000610
:102C200005D43068000602D430680006F3D567206A
:102C3000B0813168090608D43168090605D43168C5
:102C4000090602D431680906F3D5B0813168090656
:102C500008D43168090605D43168090602D4316800
:102C60000906F3D56C21B1813168090608D43168B1
:102C7000090605D43168090602D431680906F3D57E
:102C80006521B18133681B0608D433681B0605D45F
:102C900033681B0602D433681B06F3D56423B38163
:102CA00033681B0608D433681B0605D433681B063B
:102CB00002D433681B06F3D5039BB38133681B062C
:102CC00008D433681B0605D433681B0602D4336866
:102CD0001B06F3D5B2813268120608D43268120698
:102CE00005D43268120602D432681206F3D5722275
:102CF000B2813B463268120608D43268120605D407
:102D00003268120602D432681206F3D56122B2810B
:102D10003268120608D43268120605D432681206E8
:102D200002D432681206F3D56E22B28132681206DE
:102D300008D43268120605D43268120602D432680A
:102D40001206F3D5B0813068000608D4306800065A
:102D500005D43068000602D430680006F3D5B1818E
:102D60003068000608D43068000605D430680006D4
:102D700002D430680006F3D52E20B08130680006FA
:102D800008D43068000605D43068000602D43068E4
:102D90000006F3D5B481039F3068000601D5FDF726
:102DA000A0FF3068000601D5FDF79BFF30680006E4
:102DB00001D5FDF796FF30680006EDD5FDF791FFD0
:102DC000000800483068000608D43068000605D4C2
:102DD0003068000602D430680006F3D55520B08173
:102DE0003068000608D43068000605D43068000654
:102DF00002D430680006F3D56E20B0813168090630
:102E000008D43168090605D43168090602D431684E
:102E10000906F3D56B21B1813168090608D4316800
:102E2000090605D43168090602D431680906F3D5CC
:102E3000B0813168090608D43168090605D43168C3
:102E4000090602D431680906F3D56F21B1813268D1
:102E5000120608D43268120605D43268120602D46B
:102E600032681206F3D57722B2813268120608D48E
:102E70003268120605D43268120602D4326812068D
:102E8000F3D5B0813268120608D43268120605D430
:102E90003268120602D432681206F3D5B78132685E
:102EA000120608D43268120605D43268120602D41B
:102EB00032681206F3D56322B2813268120608D452
:102EC0003268120605D43268120602D4326812063D
:102ED000F3D5B1813168090608D43168090605D4F3
:102EE0003168090602D431680906F3D56D21B18134
:102EF0003268120608D43268120605D43268120607
:102F000002D432681206F3D5B1813168090608D4BB
:102F10003168090605D43168090602D4316809060A
:102F2000F3D56121B1813268120608D432681206E5
:102F300005D43268120602D432681206F3D5B08185
:102F40003268120608D43268120605D432681206B6
:102F500002D432681206F3D56422B28132681206B6
:102F600008D43268120605D43268120602D43268D8
:102F70001206F3D52122B2813268120608D43268D3
:102F8000120605D43268120602D432681206F3D54E
:102F9000B7813268120608D43268120605D4326846
:102FA000120602D432681206F3D55422B281326876
:102FB000120608D43268120605D43268120602D40A
:102FC00032681206F3D57222B2813268120608D432
:102FD0003268120605D43268120602D4326812062C
:102FE000F3D57922B2813268120608D4326812060B
:102FF00005D43268120602D432681206F3D5B781BE
:103000003268120608D43268120605D432681206F5
:1030100002D432681206F3D5B1813268120608D4A0
:103020003268120605D43268120602D432681206DB
:10303000F3D56722B2813268120608D432681206CC
:1030400005D43268120602D432681206F3D5B18173
:103050003168090608D43168090605D431680906C3
:1030600002D431680906F3D56921B18131680906B6
:1030700008D43168090605D43168090602D43168DC
:103080000906F3D5B0813068000608D43068000620
:1030900005D43068000602D430680006F3D52E202F
:1030A000B0813068000608D43068000605D4306866
:1030B000000602D430680006F3D5B48130680006FB
:1030C00001D5FDF70EFE3068000601D5FDF709FEBB
:1030D0003068000601D5FDF704FE30680006EDD526
:1030E000FDF7FFFD6878322800D0CFE01F46402171
:1030F0006548FDF78DF93068000608D43068000691
:1031000005D43068000602D430680006F3D5542098
:10311000B0813068000608D43068000605D43068F5
:10312000000602D430680006F3D56F20B0813B461C
:103130003068000608D43068000605D43068000600
:1031400002D430680006F3D56720B08131680906E3
:1031500008D43168090605D43168090602D43168FB
:103160000906F3D5B0813068000608D4306800063F
:1031700005D43068000602D430680006F3D56C2010
:10318000B0813068000608D43068000605D4306885
:10319000000602D430680006F3D56520B08131689E
:1031A000090608D43168090605D43168090602D435
:1031B00031680906F3D56421B1813268120608D45A
:1031C0003268120605D43268120602D4326812063A
:1031D000F3D5039AB2813268120608D43268120617
:1031E00005D43268120602D432681206F3D5722270
:1031F000B2813268120608D43268120605D43268E9
:10320000120602D432681206F3D5B0813068000687
:1032100008D43068000605D43068000602D430684F
:103220000006F3D5B1813068000608D43068000686
:1032300005D43068000602D430680006F3D52E208D
:10324000B0813068000608D43068000605D43068C4
:10325000000602D430680006F3D5B481039F3068BD
:10326000000601D5FDF73DFD3068000601D5FDF7EC
:1032700038FD3068000601D5FDF733FD30680006E3
:10328000EDD5FDF72EFDC046000800483068000669
:1032900008D43068000605D43068000602D43068CF
:1032A0000006F3D55520B0813068000608D4306898
:1032B000000605D43068000602D430680006F3D555
:1032C0006E20B0813168090608D43168090605D43A
:1032D0003168090602D431680906F3D56B21B18142
:1032E0003168090608D43168090605D43168090631
:1032F00002D431680906F3D5B0813168090608D4D3
:103300003168090605D43168090602D43168090616
:10331000F3D56F21B1813268120608D432681206E3
:1033200005D43268120602D432681206F3D5772229
:10333000B2813268120608D43268120605D43268A7
:10334000120602D432681206F3D5B0813268120632
:1033500008D43268120605D43268120602D43268E4
:103360001206F3D5B7813268120608D43268120605
:1033700005D43268120602D432681206F3D56322ED
:10338000B2813268120608D43268120605D4326857
:10339000120602D432681206F3D5B18131680906EB
:1033A00008D43168090605D43168090602D43168A9
:1033B0000906F3D56D21B1813268120608D432684E
:1033C000120605D43268120602D432681206F3D50A
:1033D000B1813168090608D43168090605D431681D
:1033E000090602D431680906F3D56121B18132683A
:1033F000120608D43268120605D43268120602D4C6
:1034000032681206F3D5B0813268120608D43268E9
:10341000120605D43268120602D432681206F3D5B9
:103420006422B2813268120608D43268120605D4CA
:103430003268120602D432681206F3D52122B28114
:103440003268120608D43268120605D432681206B1
:1034500002D432681206F3D5B7813268120608D456
:103460003268120605D43268120602D43268120697
:10347000F3D55422B2813268120608D4326812069B
:1034800005D43268120602D432681206F3D57222CD
:10349000B2813268120608D43268120605D4326846
:1034A000120602D432681206F3D57922B28132684C
:1034B000120608D43268120605D43268120602D405
:1034C00032681206F3D5B7813268120608D4326822
:1034D000120605D43268120602D432681206F3D5F9
:1034E000B1813268120608D43268120605D43268F7
:1034F000120602D432681206F3D56722B28132680E
:10350000120608D43268120605D43268120602D4B4
:1035100032681206F3D5B1813168090608D43168E2
:10352000090605D43168090602D431680906F3D5C5
:103530006921B1813168090608D43168090605D4CA
:103540003168090602D431680906F3D5B0813068C4
:10355000000608D43068000605D43068000602D49E
:1035600030680006F3D52E20B0813068000608D4FC
:103570003068000605D43068000602D430680006C2
:10358000F3D5B4813068000601D5FDF7AAFB306899
:10359000000601D5FDF7A5FB3068000601D5FDF753
:1035A000A0FB30680006EDD5FDF79BFB43088B427E
:1035B0001AD3002203098B4279D3030A8B425ED3CC
:1035C000030B8B4242D3030C8B4227D30902FF2209
:1035D00012BA030C8B4202D31212090203D0030B5E
:1035E0008B4233D31AE0D3E0411A8041401C70472C
:1035F00003460B4371D443088B42F5D300220309E1
:103600008B4254D3030A8B4239D3030B8B421DD315
:10361000030C8B4202D394466EE0090AC30B8B4223
:1036200001D3CB03C01A5241830B8B4201D38B03CE
:10363000C01A5241430B8B4201D34B03C01A524173
:10364000030B8B4201D30B03C01A5241C30A8B42B6
:1036500001D3CB02C01A5241830A8B4201D38B02A1
:10366000C01A5241430A8B4201D34B02C01A524145
:10367000030A8B4201D30B02C01A5241CDD2C309B7
:103680008B4201D3CB01C01A524183098B4201D333
:103690008B01C01A524143098B4201D34B01C01A1E
:1036A000524103098B4201D30B01C01A5241C30896
:1036B0008B4201D3CB00C01A524183088B4201D305
:1036C0008B00C01A524143088B4201D34B00C01AF1
:1036D0005241411A524110007047CA0F00D049426E
:1036E000031000D34042534000229C4603098B4202
:1036F0002DD3030A8B4212D38901FC2212BA030A8A
:103700008B420CD3890192118B4208D3890192110B
:103710008B4204D3890137D0921100E08909C30993
:103720008B4201D3CB01C01A524183098B4201D392
:103730008B01C01A524143098B4201D34B01C01A7D
:10374000524103098B4201D30B01C01A5241C308F5
:103750008B4201D3CB00C01A524183088B4201D364
:103760008B00C01A5241D9D243088B4201D34B007F
:10377000C01A5241411A00D20146524110466346D6
:103780005B1000D34042704763465B1000D3404259
:1037900001B50021004201D0C9430846C046C046D9
:1037A00002BD000000000000000001020304060743
:1037B000080902030405060708090A0B0C0D0E0F81
:1037C00010100102030405060708090A0B0C0D0E70
:1037D0000F100000F8370008000000201000000063
:1037E0001C010008083800081000002070060000C6
:1037F0003C0100080000000001000000040000007F
:0838000000127A000000000034
:04000005080000C12E
:00000001FF
